{
  "_format": "hh-sol-artifact-1",
  "contractName": "Storage",
  "sourceName": "contracts/Storage.sol",
  "abi": [
    {
      "inputs": [],
      "stateMutability": "nonpayable",
      "type": "constructor"
    },
    {
      "inputs": [],
      "name": "getHahs",
      "outputs": [
        {
          "components": [
            {
              "internalType": "string",
              "name": "hash",
              "type": "string"
            },
            {
              "internalType": "uint256",
              "name": "timestamp",
              "type": "uint256"
            }
          ],
          "internalType": "struct Storage.Hash[]",
          "name": "",
          "type": "tuple[]"
        }
      ],
      "stateMutability": "view",
      "type": "function"
    },
    {
      "inputs": [],
      "name": "owner",
      "outputs": [
        {
          "internalType": "address",
          "name": "",
          "type": "address"
        }
      ],
      "stateMutability": "view",
      "type": "function"
    },
    {
      "inputs": [
        {
          "internalType": "string",
          "name": "hash",
          "type": "string"
        }
      ],
      "name": "store",
      "outputs": [],
      "stateMutability": "payable",
      "type": "function"
    },
    {
      "inputs": [
        {
          "internalType": "string",
          "name": "hash",
          "type": "string"
        }
      ],
      "name": "validate",
      "outputs": [
        {
          "internalType": "bool",
          "name": "",
          "type": "bool"
        }
      ],
      "stateMutability": "view",
      "type": "function"
    },
    {
      "inputs": [],
      "name": "withdraw",
      "outputs": [],
      "stateMutability": "payable",
      "type": "function"
    }
  ],
  "bytecode": "0x608060405234801561001057600080fd5b50600080546001600160a01b031916331790556107c1806100326000396000f3fe60806040526004361061004a5760003560e01c8063131a06801461004f5780633ccfd60b14610064578063858e0eba1461006c5780638da5cb5b14610097578063d182b83b146100cf575b600080fd5b61006261005d3660046104d8565b6100ff565b005b6100626101c1565b34801561007857600080fd5b5061008161024c565b60405161008e9190610641565b60405180910390f35b3480156100a357600080fd5b506000546100b7906001600160a01b031681565b6040516001600160a01b03909116815260200161008e565b3480156100db57600080fd5b506100ef6100ea3660046104d8565b610396565b604051901515815260200161008e565b61010881610396565b156101505760405162461bcd60e51b81526020600482015260136024820152724861736820616c72656164792065786973747360681b60448201526064015b60405180910390fd5b60408051808201909152818152426020808301919091526001805480820182556000919091528251805160029092027fb10e2d527612073b26eecdfd717e6a320cf44b4afac2b0732d9fcbe2b7fa0cf601926101b19284929091019061043f565b5060208201518160010155505050565b6000546001600160a01b0316331461020f5760405162461bcd60e51b81526020600482015260116024820152702cb7ba9030b932903737ba1037bbb732b960791b6044820152606401610147565b600080546040516001600160a01b03909116914780156108fc02929091818181858888f19350505050158015610249573d6000803e3d6000fd5b50565b6000546060906001600160a01b0316331461029d5760405162461bcd60e51b81526020600482015260116024820152702cb7ba9030b932903737ba1037bbb732b960791b6044820152606401610147565b6001805480602002602001604051908101604052809291908181526020016000905b8282101561038d57838290600052602060002090600202016040518060400160405290816000820180546102f2906106fb565b80601f016020809104026020016040519081016040528092919081815260200182805461031e906106fb565b801561036b5780601f106103405761010080835404028352916020019161036b565b820191906000526020600020905b81548152906001019060200180831161034e57829003601f168201915b50505050508152602001600182015481525050815260200190600101906102bf565b50505050905090565b6000805b60015481101561043657826040516020016103b59190610589565b60405160208183030381529060405280519060200120600182815481106103de576103de61075f565b90600052602060002090600202016000016040516020016103ff91906105a5565b6040516020818303038152906040528051906020012014156104245750600192915050565b8061042e81610736565b91505061039a565b50600092915050565b82805461044b906106fb565b90600052602060002090601f01602090048101928261046d57600085556104b3565b82601f1061048657805160ff19168380011785556104b3565b828001600101855582156104b3579182015b828111156104b3578251825591602001919060010190610498565b506104bf9291506104c3565b5090565b5b808211156104bf57600081556001016104c4565b6000602082840312156104ea57600080fd5b813567ffffffffffffffff8082111561050257600080fd5b818401915084601f83011261051657600080fd5b81358181111561052857610528610775565b604051601f8201601f19908116603f0116810190838211818310171561055057610550610775565b8160405282815287602084870101111561056957600080fd5b826020860160208301376000928101602001929092525095945050505050565b6000825161059b8184602087016106cb565b9190910192915050565b600080835481600182811c9150808316806105c157607f831692505b60208084108214156105e157634e487b7160e01b86526022600452602486fd5b8180156105f5576001811461060657610633565b60ff19861689528489019650610633565b60008a81526020902060005b8681101561062b5781548b820152908501908301610612565b505084890196505b509498975050505050505050565b60006020808301818452808551808352604092508286019150828160051b87010184880160005b838110156106bd57603f1989840301855281518051878552805180898701526060610698828289018d86016106cb565b928a0151868b015296890196601f01601f191690940101925090860190600101610668565b509098975050505050505050565b60005b838110156106e65781810151838201526020016106ce565b838111156106f5576000848401525b50505050565b600181811c9082168061070f57607f821691505b6020821081141561073057634e487b7160e01b600052602260045260246000fd5b50919050565b600060001982141561075857634e487b7160e01b600052601160045260246000fd5b5060010190565b634e487b7160e01b600052603260045260246000fd5b634e487b7160e01b600052604160045260246000fdfea264697066735822122052b4ea14753f9f67170188ac4d4685c6489f0996718f8a43b8ea2668775023af64736f6c63430008060033",
  "linkReferences": {},
  "deployedLinkReferences": {}
}